:020000040800F2
:1000000048090020E5250008892500088B250008FF
:100010008D2500088F2500089125000800000000AC
:100020000000000000000000000000009325000810
:100030009525000800000000972500089925000874
:10004000092600080D2600081126000815260008BC
:10005000192600081D26000821260008252600086C
:10006000292600082D26000831260008352600081C
:10007000392600083D2600084126000845260008CC
:10008000492600084D2600085126000800000000FF
:100090000000000055260008592600085D260008CB
:1000A0006126000865260008692600086D260008FC
:1000B0007126000875260008792600087D260008AC
:1000C0000000000000000000812600080000000081
:1000D0008526000889260008000000008D260008FB
:1000E00091260008952600080000000099260008C7
:1000F0009D260008A1260008A5260008A9260008BC
:10010000AD26000800000000000000000000000014
:10011000B1260008B5260008B92600080000000036
:1001200000000000000000000000000000000000CF
:100130000000000000000000BD2600085FF0B04095
:100140000068000D10F0010070475FF0B0400168DA
:1001500051F48031016070475FF0B040016831F4C4
:100160008031016070475FF0B0400068400C10F0D3
:10017000010070475FF0B040016851F48071016088
:1001800070475FF0B040016831F4807101607047E2
:100190005FF0B0400068800A10F001007047DFF89F
:1001A000041A0A6832F0FE4252EA00620A6070479E
:1001B000DFF8F409016851F0010101607047DFF8D0
:1001C000E80901684908490001607047DFF8D8096B
:1001D000016851F0040101607047DFF8CC09016843
:1001E00031F0040101607047DFF8BC090068400885
:1001F00010F001007047DFF8B409016851F0010107
:1002000001607047DFF8A4090168490849000160EE
:100210007047DFF898090068400810F00100704747
:10022000DFF88809016851F0040101607047DFF8C8
:100230007C09016831F0040101607047DFF86C0946
:100240000068C00810F001007047DFF860190A6804
:1002500032F4706252EA00220A6070475FF0B040E8
:10026000016851F00101016070475FF0B040016822
:1002700049084900016070475FF0B04000684008DD
:1002800010F0010070475FF0B0410A6832F0F002F0
:1002900002430A6070475FF0B040006810F0F00061
:1002A000B12801D3B02108007047DFF8F8180A68B8
:1002B00032F47F4252EA00220A607047DFF8F018F9
:1002C0000A689208920002430A607047DFF8E0086B
:1002D000006810F00C007047DFF8D4180A6832F09C
:1002E000F00202430A607047DFF804190A6832F02E
:1002F000F00202430A607047DFF8F4180A68120936
:10030000120152EA10120A607047DFF8A4180A6856
:1003100032F4E06202430A607047DFF894180A681A
:1003200032F4605202430A607047DFF884080068C4
:1003300010F0F0007047DFF8B8080068000110F016
:10034000F0007047DFF86828136833F0FE4303437A
:100350000B43136070475FF0B040016851F080714B
:10036000016070475FF0B040016831F0807101605A
:1003700070475FF0B0400068400E10F00100704719
:10038000DFF8E8080068C0F306207047DFF8DC08F3
:10039000006810F060407047DFF8D008006810F087
:1003A00070007047DFF8C408006810F00300704761
:1003B000DFF8FC070068000C10F001007047DFF860
:1003C00030080068400C10F001007047DFF820088A
:1003D0000068000C10F001007047DFF8D4070068D7
:1003E000400C10F001007047DFF8C4070068800C73
:1003F00010F0010070472DE9F0470400002C01D1F6
:10040000012057E22078800668D5FFF75FFF0500DE
:10041000FFF7C8FF0700002D03D00C2D34D1012FAA
:1004200032D1E069002801D1012043E2FFF733FF18
:10043000616A88420DD2606A00F0BCFB002801D0DE
:10044000012037E2606AFFF71EFF206AFFF72DFFE9
:100450000CE0606AFFF717FF206AFFF726FF606A6B
:1004600000F0A8FB002801D0012023E200F08CFB63
:10047000DFF8FC170860DFF8FC07006800F014FCE8
:1004800000282BD0012015E2E069002816D0FFF7E4
:10049000E5FE00F037FC0600FFF7EEFE002806D16F
:1004A00000F030FC801B0328F6D3032002E2606AD0
:1004B000FFF7E9FE206AFFF7F8FE0FE0FFF7D5FE31
:1004C00000F020FC0600FFF7D7FE002806D000F061
:1004D00019FC801B0328F6D30320EBE12078C0072A
:1004E00038D5FFF7F3FE0500FFF75CFF0700082D86
:1004F00003D00C2D06D1032F04D16068002829D128
:100500000120D7E16068B0F5803F02D1FFF71DFE02
:1005100001E0FFF721FE606800280DD000F0F2FB3B
:100520000600FFF720FE002814D100F0EBFB801B33
:100530006528F6D30320BDE100F0E4FB0600FFF7D9
:1005400012FE002806D000F0DDFB801B6528F6D3E4
:100550000320AFE1207880073BD5FFF7B7FE050009
:10056000FFF720FF0700042D03D00C2D0AD1022F26
:1005700008D1E068002801D101209BE12069FFF744
:100580000EFE26E0E068002813D0FFF7F3FD00F030
:10059000B9FB0600FFF7FCFD002806D100F0B2FB16
:1005A000801B0328F6D3032084E12069FFF7F7FDC1
:1005B0000FE0FFF7E6FD00F0A5FB0600FFF7E8FD02
:1005C000002806D000F09EFB801B0328F6D30320F2
:1005D00070E1207810F0180F79D06069002856D0AB
:1005E0002078C00636D5FFF714FE00280FD1FFF79C
:1005F00002FE00F087FB0600FFF70BFE002806D185
:1006000000F080FB801B0328F6D3032052E1FFF7A4
:1006100007FE00F077FB0500FFF710FE002806D16B
:1006200000F070FB401B0428F6D3032042E1A069D0
:10063000FFF70BFEFFF7E6FD00F064FB0600FFF797
:10064000E8FD002843D000F05DFB801B0328F6D3B3
:1006500003202FE1FFF7CFFD00F054FB0600FFF76A
:10066000D8FD002806D100F04DFB801B0328F6D3EF
:1006700003201FE1FFF7DBFDFFF7E0FD002826D098
:1006800000F040FB801B0428F6D3032012E1FFF7A3
:10069000CEFD00F037FB0500FFF7D0FD002806D0A7
:1006A00000F030FB401B0428F6D3032002E1FFF7E3
:1006B000A9FD00F027FB0600FFF7ABFD002806D0E0
:1006C00000F020FB801B0328F6D30320F2E0207803
:1006D000400748D5DFF8A0552868C0050ED400F0C3
:1006E00017FB00F00FFB06002868C00506D400F0D9
:1006F00009FB801B0328F7D30320DBE0A068012857
:1007000002D1FFF755FD0BE0A068052804D1FFF7E3
:100710005DFDFFF74DFD03E0FFF751FDFFF75DFDC8
:10072000A06800280FD000F0EDFA0600FFF75CFD8E
:10073000002818D100F0E6FA801B41F28931884286
:10074000F4D30320B6E000F0DDFA0600FFF74CFD1D
:10075000002808D000F0D6FA801B41F28931884287
:10076000F4D30320A6E0A06A002800F0A280FFF7DF
:10077000ADFD0500DFF8F494D9F80070A06A0228F6
:100780007AD117F00300E16A884218D117F070009F
:10079000216B884213D1C7F30620616B88420ED1CA
:1007A00017F47810A16B884209D117F06060E16BF3
:1007B000884204D117F06040216C884240D00C2D53
:1007C0003CD0FFF7CFFD00F09DFA80465FF0B04AC5
:1007D000DAF80000800107D500F094FAB0EB0800C9
:1007E0000328F3D3032065E0D9F80010DFF88C0468
:1007F0000140E06A0143206B0143606B51EA002134
:10080000A06B0143E06B0143206C0143C9F8001069
:10081000FFF7A1FDD9F8000050F08050C9F80000A2
:1008200000F070FA0600DAF80000800141D400F010
:1008300069FA801B0328F6D303203BE0012039E04E
:100840005FF0B048D8F80000800132D4FFF783FD94
:10085000D9F8000050F08050C9F8000000F052FABA
:100860000600D8F80000800123D400F04BFA801B6A
:100870000328F6D303201DE00C2D18D0FFF772FDDE
:1008800000F040FA06005FF0B0400068800106D535
:1008900000F038FA801B0328F5D303200AE0D9F8CA
:1008A0000010DFF8DC030140C9F8001001E001206E
:1008B00000E00020BDE8F087F8B504000D00002C32
:1008C00001D10120DAE0DFF8BC73386810F00700CE
:1008D000A84213D23868C008C0002843386000F02E
:1008E00011FA0600386810F00700A84206D000F0A0
:1008F00009FA801B0328F5D30320BFE02078800786
:1009000010D5A068FFF7E8FC00F0FCF90600FFF73F
:100910004FFD002806D100F0F5F9801B0328F6D31F
:100920000320ABE02078800610D56069FFF7DCFC7F
:1009300000F0E8F90600FFF742FD002806D100F0BC
:10094000E1F9801B0328F6D3032097E020784006C6
:1009500010D5A069FFF7D0FC00F0D4F90600FFF72E
:1009600035FD002806D100F0CDF9801B0328F6D311
:10097000032083E02078400710D5E068FFF7C5FC2E
:1009800000F0C0F90600FFF728FD002806D100F0AE
:10099000B9F9801B0328F6D303206FE02078000705
:1009A00011D52069C000FFF7B8FC00F0ABF90600D4
:1009B000FFF71AFD002806D100F0A4F9801B0328D8
:1009C000F6D303205AE02078C00735D560680228A6
:1009D00005D1FFF7C8FB002819D101204EE060685F
:1009E000032805D1FFF7C5FC002810D1012045E000
:1009F0006068002805D1FFF73FFC002807D10120DF
:100A00003CE0FFF7C5FB002801D1012036E060681B
:100A1000FFF754FC00F076F90600FFF757FC616819
:100A2000B0EB810F08D000F06DF9801B41F28931E5
:100A30008842F2D3032021E0386810F00700854295
:100A400013D23868C008C0002843386000F05AF953
:100A50000600386810F00700A84206D000F052F9EE
:100A6000801B0328F5D3032008E000F08DF8DFF8A1
:100A70000012086000F06BF900F016F9F2BD2DE9E4
:100A8000F04385B005000E001700022001900320FE
:100A900003900020029015F08054C5F303485FEAEC
:100AA000882818F19048C5F30349DFF8DC01016894
:100AB000012212FA09F211430160A8B20090C5F3B5
:100AC000075004906946404600F048F9002C04D1D4
:100AD00039003000FFF736FC06E0B4F1805F03D147
:100AE00039003000FFF72EFC05B0BDE8F083F8B503
:100AF000FFF7ECFB0400002C08D1FFF7CCFBDFF87C
:100B00008C11C0F3031051F820003CE0042C01D1FB
:100B10005F4838E0082C07D1FFF710FB012801D10E
:100B20005B4830E05B482EE0FFF73CFC0500280006
:100B3000022802D0032803D00CE05548060011E03B
:100B4000FFF7FCFA012802D15148060001E05148A4
:100B5000060007E0FFF79FFB4C49C0F3031051F874
:100B600020000600FFF70CFC0700FFF715FC07FB51
:100B700006F70009401CB7FBF0F7FFF707FC400F32
:100B8000401CB7FBF0F0F2BD10B5FFF7B0FF04005A
:100B9000FFF7CBFB4049C0F3031051F82000B4FB32
:100BA000F0F010BD04000058900000589400005868
:100BB0000800005870B50400B12C02D33348C66A4F
:100BC00004E03248C4F3031150F82160FFF7B3FB8F
:100BD0003149C0F3031051F82000B6FBF0F54FF493
:100BE00000712E48B5FBF0F000F004F870BD000075
:100BF000080100582DE9F04188B004000D0004A858
:100C00002749102200F08CF968462649102200F08E
:100C100087F90026002004280BD204A951F82010DF
:100C2000A14204D3694651F820100E0001E0401C97
:100C3000F1E7DFF85080D8F80000C008C00030436A
:100C4000C8F8000000F05EF80700D8F8000010F0C7
:100C50000700B04206D000F055F8C01B0328F4D3BB
:100C6000032000E0002008B0BDE8F0810C0000582F
:100C70000C00002008000020000400588C80C111E6
:100C8000FCFFFFEF004000584C00005834230008E0
:100C90000024F4000048E801F422000840420F005C
:100CA000C4250008D425000870B504000025134EA3
:100CB000307800281DD0FFF767FF4FF47A71327843
:100CC000B1FBF2F1B0FBF1F000F0FCF900280DD11E
:100CD000102C08D2002221005FF0FF3000F0E0F974
:100CE0000748046007E00120050004E0012005003A
:100CF00001E0012005002800C0B270BD54000020B2
:100D00000800002001480068704700BF400500202F
:100D10000248016851F48071016070470004005876
:100D200010B500240B48016851F480710160032064
:100D300000F0B0F90020FFF7B7FF002802D0012033
:100D4000040001E000F0D2F92000C0B210BD02485A
:100D5000006870470040005808000020F0B403000D
:100D600000250868E840002800F0B78001260F68D9
:100D700016FA05F007403A00002A00F0AC80087926
:100D800010F00300012804D0087910F003000228B5
:100D900019D19F685FF0030C68001CFA00FC37EA69
:100DA0000C07D1F80CC068001CFA00FC5CEA0707CD
:100DB0009F605868AE40B0434E68C6F30016AE4020
:100DC000304304005C60087910F0030003280AD067
:100DD000DE68032768008740BE438F68680087404D
:100DE0003E433400DC60087910F00300022816D17D
:100DF0002800C00803EB8000006A0F26AF0017F040
:100E00001C07BE40B0430E69AF0017F01C07BE4080
:100E1000304304002800C00803EB800004621E6811
:100E2000032768008740BE430F7917F00307680067
:100E300087403E4334001C60486810F4403F4AD06D
:100E4000274E2800800856F820000F275FEA850CFF
:100E50001CF00C0C17FA0CF7B843B3F1904F01D10A
:100E600000240FE01F4CA34201D101240AE01E4CD4
:100E7000A34201D1022405E01C4CA34201D1042469
:100E800000E00724AF0017F00C07BC4020432C0003
:100E9000A40846F82400164E346894434F68FF02B5
:100EA00000D514433460134E306890434F68BF023E
:100EB00000D510433060104C266896434F68FF03FE
:100EC00000D5164326600D48046894434F68BF035D
:100ED00000D5144304606D1C43E7F0BC704700006C
:100EE00008000140000400480008004800100048C5
:100EF000000800580408005880080058840800586A
:100F000062B38B0708D0521E11F8013B00F8013B79
:100F100000F024808B07F6D1830740F0208000BFCB
:100F2000103A07D330B4B1E83810103AA0E83810BE
:100F3000F9D230BC530724BFB1E80810A0E808106C
:100F400044BF51F8043B40F8043BD20724BF31F8BA
:100F5000022B20F8022B44BF0B7803707047121F3E
:100F600017D35B0009D151F8043B20F8023B1B0C5E
:100F7000121F20F8023BF6D20BE051F8043B00F8B8
:100F8000013B1B0A20F8023B1B0C121F00F8013B1F
:100F9000F3D238BF121D521E24BF11F8013B00F8D6
:100FA000013BF8D870470EE00268436802440830FD
:100FB0005FEAC37C44BF4B445B1E52F804CB43F84A
:100FC00004CB091FF9D150F8041B0029ECD170475C
:100FD00010B410F007033E4C22684FF6FF010A40A0
:100FE00052EA03223B490A43226010BC704738484A
:100FF0000068C0F30220704710B4020052B2002A09
:1010000005D40A01344B040064B21A5508E00A0101
:10101000324B040064B214F00F04234403F8042C90
:1010200010BC704770B4030013F00704D4F107003C
:10103000052801D3042001E0D4F10700251D072D68
:1010400001D2002500E0E51E012616FA00F0401E40
:101050000140A94016FA05F56D1E2A40114308000B
:1010600070BC704710B50400601EB0F1807F01D3E2
:1010700001200EE0601E1A4908600F215FF0FF306A
:10108000FFF7BAFF002017490860072016490860DB
:10109000002010BD10B504002000FFF799FF10BD1F
:1010A000F8B504000D001600FFF7A1FF070032009D
:1010B00029003800FFF7B6FF0100200040B2FFF71B
:1010C0009BFFF1BD10B504002000FFF7CBFF10BD62
:1010D0000CED00E00000FA0500E400E018ED00E08F
:1010E00014E000E018E000E010E000E070470000CD
:1010F00070B504000D00A6686068711C884206D3B4
:1011000020688555701CA060E068401CE060A06805
:10111000616888420DD1A2682168206900F0B5FBA2
:10112000A168884203D05FF0FF30E06001E000205A
:10113000A06070BD2DE9FE4F0700884691461E0055
:101140000C9CC24601255FF0010BCA4504D3BAFBD3
:10115000F9FA1BF1010BF8E7B34500D2B3460D983D
:10116000C0071AD4002C18D00D98800705D5002E82
:1011700003D130208DF8000002E020208DF800001F
:10118000002C0AD0A34508D2641E9DF80010380038
:10119000FFF7AEFFF8680028F2D5F868002830D4D1
:1011A000022E01D3761E05E0B8FBF5F00190019800
:1011B000484502D309FB05F5F2E7B8FBF5F00190CD
:1011C000019805FB108810480199415C3800FFF731
:1011D0008FFFF868002803D4B5FBF9F5002DECD19A
:1011E0000D98C0070DD5002C0BD0002C09D0A345BD
:1011F00007D2641E20213800FFF77AFFF868002824
:10120000F3D5BDE8F78F0000B42500082DE9FE4FA7
:1012100006000F0090461D000C9CDDF83490002F56
:1012200002D5D7F1000A00E0BA465FF0010BC245D3
:1012300004DB9AFBF8FA1BF1010BF8E7AB4500D28F
:10124000AB46002C05D0002F02D45FEA497000D5D0
:10125000641E5FEA897001D5002D10D05FEAC97065
:101260000DD4002C0BD0002C09D0A34507D2641E4E
:1012700020213000FFF73CFFF0680028F3D5F0682C
:10128000002831D4002F05D57F422D213000FFF7F3
:101290002FFF06E05FEA497003D52B213000FFF7EE
:1012A00027FFF06800281FD419F0030002280FD18F
:1012B000002D0DD1002C0BD0002C09D0A34507D256
:1012C000641E30213000FFF713FFF0680028F3D5CB
:1012D000F068002808D4CDF8049000942B00424612
:1012E00039003000FFF726FFBDE8F78F2DE9F14FF9
:1012F00098B08946150007A802904020039000206E
:101300000490189806900020059099F800000600B7
:1013100019F101093000C0B2002800F00F8130003F
:10132000C0B2252840F00181002080460120040041
:1013300099F8000006003000C0B2232815D02B28F1
:101340000ED02D2802D0302805D013E058F0010827
:1013500019F1010910E058F0020819F101090BE038
:1013600058F0040819F1010906E058F0080819F1CD
:10137000010901E000200400002CD9D100208246A0
:1013800099F8000006003000C0B2302803DB3000BE
:10139000C0B23A2808DB0020070099F800100800C6
:1013A000C0B22E2820D109E019F101090A2000FB62
:1013B0000AFA5AFA86FABAF1300AE1E719F1010994
:1013C00099F8000001000800C0B2302803DB0800D3
:1013D000C0B23A2800DB07E019F101090A204743AF
:1013E00057FA81F7303FEBE799F800603000C0B260
:1013F0006C2803D03000C0B2682805D119F101096A
:1014000099F800000600F1E73000C0B2252800F08E
:101410008480582841D063280AD0642817D07028C7
:1014200068D073284CD0752824D0782835D079E03E
:1014300028682860286800682968091D2960040058
:10144000A3465946C9B202A8FFF752FE6AE02868CF
:101450002860286800682968091D29600400CDF803
:101460000480CDF800A03B000A22210002A8FFF76B
:10147000CDFE57E028682860286800682968091DA3
:1014800029600400CDF80480CDF800A03B000A22BA
:10149000210002A8FFF74EFE44E028682860286873
:1014A00000682968091D29600400CDF80480CDF882
:1014B00000A03B001022210002A8FFF73BFE31E014
:1014C000286828602868D0F800B02868001D2860C7
:1014D0009BF8000006001BF1010B3000C0B2002891
:1014E00007D03100C9B202A8FFF702FE0598002814
:1014F000EED517E028682860286800682968091D6B
:101500002960040000200190082000900823102288
:10151000210002A8FFF70EFE04E0252102A8FFF734
:10152000E7FDFFE719F1010904E03100C9B202A8A3
:10153000FFF7DEFD059800287FF5E7AE0598012846
:101540000BDB0498002804D0049A07A9189800F02F
:101550009CF90599049841180591059819B0BDE8C2
:10156000F08F0CB438B504000D0004A800906A4652
:1015700029002000FFF7BAFE32BC5DF80CFB00002A
:10158000F8B5DFF8A843A825002627003200290077
:10159000380000F0D5F90320206103206061DFF8F6
:1015A0009003A061DFF88C13E1614FF48061216248
:1015B0000021A162002161620021E1622066DFF862
:1015C000780360661020A066002020670020E06697
:1015D00000206067BFF35F8F0020102807D2DFF87C
:1015E0005C1342421144C97B2154401CF5E7BFF310
:1015F0005F8FF1BD2DE9FE4F05000E0014005FF076
:101600000008D5F80C9028690700B94503D2B7EB5C
:101610000900401E04E0A868B0EB09003818401E1D
:10162000A968B1EB0901884201D2824603E0D5F8EE
:1016300008A0BAEB090AA24500D3A246686848444C
:101640000090CDF808A00196DDF800B0029A01994B
:101650005846FFF755FC1AEB08085644B4EB0A0449
:101660001AEB0909A868814501D100208146BFF322
:101670005F8FC5F80C90002CC5D14046BDE8FE8FA9
:101680002DE9F84F84B004000D001600E768D4F887
:101690000880B8EB070846450FD2606800EB0709E1
:1016A0000196AA46CB46019A51465846FFF728FCB8
:1016B000BFF35F8FF019E06021E0CDF80080606833
:1016C00038440190009803900295DDF80490039A45
:1016D00002994846FFF714FCB6EB08000090D4F8D6
:1016E00004900098019005EB080ACB46019A5146F8
:1016F0005846FFF705FCBFF35F8F0098E06005B028
:10170000BDE8F08F01000A69CB68934204D3886872
:10171000401EC01A101801E0D01A401E70472DE973
:10172000F14F84B00E001700DFF80042A3469BF88B
:101730000000002801D1FFF723FF0499182041433E
:1017400004EB010010F16008B146D8F810A0D8F8F9
:101750000C00019000240198504520D2D8F80800D0
:10176000B0EB0A00B84201D2050000E03D00D8F815
:10177000040050440090039500980290CB46039AD1
:1017800002995846FFF7BCFB2C19A9447F1B15EBA7
:101790000A0AD8F80800824501D100208246019843
:1017A000B0EB0A00B84201D2050000E03D00002D78
:1017B00011D0D8F80400504400900395009802908E
:1017C000CB46039A02995846FFF79AFB2C19A94475
:1017D0007F1B15EB0A0A002C01D0C8F810A02000CE
:1017E00005B0BDE8F08FF8B504000D001600EFF36A
:1017F0001187202080F31188320029002000FFF794
:101800008EFF87F31188F2BD2DE9F04704000D002B
:101810001600A846DFF81401182101FB04F1084462
:1018200010F1180ADAF81400002803D0022820D09A
:1018300010D325E05046FFF765FF0700B74202D2FC
:101840005FF0000905E0B146320041465046FFF71F
:1018500017FF17E05046FFF755FF0700B74201D2C8
:10186000B94600E0B1464A4641465046FFF708FFF8
:1018700008E0320041465046FFF7BCFE814601E0D9
:101880005FF000094846BDE8F0872DE9F04104000B
:101890000D001600DFF894703878002801D1FFF7AA
:1018A0006FFEEFF31188202080F3118832002900A9
:1018B0002000FFF7A9FF88F31188BDE8F0812DE92A
:1018C000F84F04000D0016001F00DDF82880DFF837
:1018D0005CB0DA469AF80000002801D1FFF750FE0C
:1018E000032C1ED2EFF31181202080F311881820E1
:1018F00000FB04F0584418308146002C0BD0C9F886
:101900000050C9F80460C9F808700020C9F8100038
:101910000020C9F80C00C9F8148081F31188002058
:1019200001E05FF0FF30BDE8F28F000058040020B6
:10193000F4250008580000202C050020A0250008F0
:1019400062F30F2262F31F42401810F0030308D025
:10195000C91A1FD3DB0748BF00F8012D28BF20F8A4
:10196000022D130030B414461546103928BF20E963
:101970003C00FAD8490728BF20E90C0048BF40F8CE
:10198000042D890028BF20F8022D48BF00F8012D42
:1019900030BC7047C91818BF00F8012DCB0728BF0D
:1019A00000F8012D704700005FF0B040016851F46D
:1019B0008031016070475FF0B040016831F48031E0
:1019C000016070475FF0B0400068400C10F001000B
:1019D0007047C049C04A0A600A6832F47C5252EA31
:1019E00000220A607047BD48007800F0FF00704791
:1019F000BA480068000A704780B5FFF791F900F017
:101A0000CDF800225FF080614FF48070FFF737F867
:101A100000F01CF800F052F800F08AF900F09BF991
:101A2000002000900023002200210020FFF747FF44
:101A3000AB4AAC490020FFF794FD00F034F90028D0
:101A400001D000F065F900F051F8FCE710B598B04E
:101A50004421002207AC2000FFF772FF1C21002266
:101A60006C462000FFF76CFF0A2007904FF480704F
:101A70000A9040200B9005200C900020119007A8A0
:101A8000FEF7B9FC002801D000F042F96F20009069
:101A9000012001900020029000200390002004907B
:101AA000002005900020069000216846FEF704FF04
:101AB000002801D000F02CF918B010BD10B58CB082
:101AC000302100226C462000FFF73AFF4FF400500F
:101AD000009000200A9010200B90684600F0EFF96B
:101AE000002801D000F014F90CB010BD1CB5012283
:101AF00069460020FFF777FE0400002C23D09DF8F4
:101B00000000312804D01ED3332811D00BD31AE0A3
:101B1000754801683F2902D20168491C01600068CC
:101B200000F044F80FE07048006800F06DF80AE03B
:101B30006D490868002802D00868401E08600868DF
:101B400000F034F8FFE713BD7CB504006946674830
:101B500000F086FA009810F1010F13D0FFF748FF4C
:101B60000500FFF740FF0600009820700098000A6B
:101B70006070A670E5702800000A20712800000C33
:101B8000607102E02000FFF7DFFF73BD80B5FFF753
:101B900012FFFFF717FF0028FBD101BD80B5FFF74B
:101BA00003FFFFF70FFF0028FBD101BD10B50400B4
:101BB000FFF7ECFF2000FFF70CFFFFF7EFFF22001D
:101BC0004B490020FFF7CDFC10BD10B500200024CC
:101BD000B4F5806F0DD247480019D0E900015FF0DD
:101BE000FF325FF0FF33994201D1904201D00834B7
:101BF000EEE7B4F5806F05D33F490020FFF7B1FC55
:101C000000F086F8200010BD2DE9FC4704000125F6
:101C10006846FFF799FF14F03F008DF8060000209A
:101C20008DF80700FFF7D1FF06003448016851F036
:101C3000404101604CF2FA303149086000F082FA0C
:101C40000700DFF8B080DDE9002318EB0601012072
:101C500000F044FA814659EA070900F084FA824606
:101C60005AEA090A5046C0B2002801D000F050F8E4
:101C700018EB06084346220022490020FFF771FCBA
:101C8000BDE8F38710B401004FF480600838194BA9
:101C90001B181A00D3790C00E4B2A34201D000282B
:101CA000F4D510BC704738B50020FFF7EBFF0400F7
:101CB000002C08D40F4D2D19AA7913490020FFF7E5
:101CC00050FC002004E011490020FFF74AFC0120ED
:101CD00032BD00009C000058FECAFECA8475FF1F7A
:101CE00000260008AC2400083C0500201805002050
:101CF000142400080070FF1FE82300081840005853
:101D00001040005874230008CC240008EC2400087C
:101D100072B6FEE781B005490A6802430A600968A5
:101D200001400091009901B0704700004C0000583C
:101D300080B50120FFF7EEFF0220FFF7EBFF01BDAA
:101D400081B01B490A6802430A600968014000919A
:101D5000009901B0704780B516481749016000210D
:101D6000416000F059F9002801D0FFF7D1FF01BD13
:101D700038B58CB00400302100226D462800FFF7F2
:101D8000DFFD20680C49884210D14FF400700090AC
:101D90005FF080400690684600F091F8002801D07E
:101DA000FFF7B6FF5FF48020FFF7CAFF0DB030BD2C
:101DB000500000581805002000100058DFF84402B9
:101DC000006810F001007047DFF838020068400832
:101DD00010F001007047DFF830120A6832F4404218
:101DE00002430A607047DFF824120A6892089200E2
:101DF00002430A607047DFF814120A6832F03002BA
:101E000002430A607047DFF808120A6892089200DD
:101E100002430A607047DFF8F8110A6832F4406242
:101E200002430A607047DFF8E8110A6803001B09E3
:101E300013F47F239A43030113F47F231A430A60A8
:101E40007047DFF8CC211368010C09048B4353EA77
:101E5000004313607047DFF8B8110A6822F040426F
:101E600002430A607047DFF8A8110A6832F0406246
:101E700002430A607047DFF898110A6832F0405256
:101E800002430A607047DFF87C110A6832F440723E
:101E900002430A607047DFF86C01006810F440707C
:101EA0007047DFF86001016851F4803101607047CC
:101EB000DFF85001016831F48031016070472DE98D
:101EC000F047050000275FF000082868000533D5BB
:101ED000FFF7E1FF0400286A84422CD0FEF718FFC8
:101EE000002C03D1286AFFF7CEFF22E0DFF814A10F
:101EF000DAF80090FFF7D5FFFFF7DAFF39F4407901
:101F0000286A50EA0909CAF80090FFF757FF01282C
:101F10000FD1FEF7F7FE0600FFF756FF012808D0A5
:101F2000FEF7F0FE801B41F289318842F4D3032092
:101F30000700B84600E0B8462878C00702D56868B0
:101F4000FFF761FF2878800702D5A868FFF763FFD5
:101F50002878C00602D52869FFF773FF2878800625
:101F600002D56869FFF76DFF2878400702D5E86859
:101F7000FFF759FF2868800521D5A869B0F1804F87
:101F800006D0A869B0F1004F02D0A869002803D19B
:101F9000A869FFF760FF08E0AC6934F080540020C6
:101FA000FFF759FF2000FFF75EFFA869B0F1C05F9F
:101FB00005D1DFF86000016851F080710160286888
:101FC00040050CD5E869FFF756FFE869B0F1005FFE
:101FD00005D1DFF84000016851F4803101602868C4
:101FE000C00402D5686AFFF7F6FE2868800405D5AC
:101FF000E86AFFF700FFA86AFFF7F5FE4046C0B2A7
:10200000BDE8F08790000058940000582400005864
:10201000880000580C00005810B50400002C01D1B5
:1020200001201CE0607A002804D1002020722000EA
:10203000FFF79EFE022060722068016831F02001E7
:1020400060680143206801602068006850F0040067
:1020500021680860012060720020E060002010BD4F
:10206000F8B504000D000027207A012801D10220D4
:102070002EE001202072607A012821D102206072B6
:10208000FEF740FE060020684068C00710D4FEF747
:1020900039FE801B0328F6D320684068C007F2D4BD
:1020A000012060720220E0600020207201200FE019
:1020B000206880682061206928600120607203E048
:1020C0000420E06001200700002020723800C0B228
:1020D000F2BD0000DFF800F0110000202DE9F84308
:1020E0000600894614001D004B4F3878012801D1A5
:1020F000022025E001203870002078604FF47A70CB
:1021000000F03EF880464046C0B2002814D1012EAF
:1021100005D122002B00484600F071F803E02100B1
:102120004846FFF7D7FF4FF47A7000F029F8804651
:102130003A480168B1430160002038704046C0B29F
:10214000BDE8F283002035490A68002A09D5364ADD
:10215000364B1360364B13600968002901D5012105
:102160000800C0B2704700202C490A6852F00042B3
:102170000A600968002901D401210800C0B2704733
:10218000F8B50500FEF7BEFD0600254F3868C00310
:1021900006D5FEF7B7FD801BA842F6D303202DE03D
:1021A0003C68E00701D501203860200404D54FF4D5
:1021B0000040386034F400444CF2FA30044014F02B
:1021C000404F05D017490A6814F0404002430A60A6
:1021D000A00002D024F040403860002C03D00E480C
:1021E000446001200AE03868400306D5FEF78AFD06
:1021F000801BA842F7D3032000E00020F2BD10B4FA
:1022000006490C6854F001040C600260BFF36F8F44
:10221000011D0B6010BC70470005002014400058E1
:1022200010400058184000580840005823016745E6
:10223000AB89EFCD1348016851F4700101605FF084
:10224000B041086850F0010008605FF4E0200E4AD9
:1022500010600A680D4802400A600D48026832F0BA
:10226000050202600B4802685208520002600A48E8
:102270000A4A1060086830F480200860002008498D
:102280000860704788ED00E008000058FBFEF6FA91
:102290009400005898000058001004220C000058C8
:1022A000180000581000000000093D0070B48022A2
:1022B00004000D000C4B1E6856F480261E60EFF3E0
:1022C000108372B62E682660241D2D1D521E160026
:1022D000F6B2002EF6D1054E3668F603FBD483F332
:1022E000108870BC704700BF144000581040005860
:1022F00001000000010000000300000005000000D4
:102300000100000001000000060000000A000000BB
:10231000200000000200000004000000080000008F
:1023200010000000400000008000000000010000DC
:1023300000020000A0860100400D0300801A060084
:1023400000350C0040420F0080841E0000093D0053
:1023500000127A000024F40000366E010048E80103
:10236000006CDC0200000000000000000000000023
:102370000000000053617665642048534520547581
:102380006E652056616C75653A202564207C20536B
:10239000746F72656420696E204F545020416464EC
:1023A000726573733A20307825580D0A00000000DA
:1023B00030B4002512E050F8042BD30744BF4A4440
:1023C000521E091F042942F8045BFAD213468C07F7
:1023D00044BF15809B1CC90748BF1D7050F8041BE3
:1023E0000029E8D130BC70474552524F523A204E36
:1023F0006F206D6F7265204F54502073706163655C
:102400003B2070726F6365647572652061626F72E4
:10241000746564004853452054756E652056616CA0
:1024200075653A20256420284D696E3A2030207C5D
:10243000204D61783A203633290D0A0010B507493E
:1024400079441831064C7C44163404E00A68081DAF
:10245000114488470146A142F8D110BD2C0000006C
:102460004C0000004EF68851CEF20001086840F49E
:1024700070000860BFF34F8FBFF36F8F4FF0017094
:10248000E1EE100A7047000029FFFFFFEC04000096
:1024900058000020000000000FEBFFFF500000007C
:1024A00004FEFFFF080000200000000053544D33DD
:1024B0003257423135204853452043414C49422050
:1024C0005254542025730D0A0000000043757272A7
:1024D000656E74204853452054756E6564205661BE
:1024E0006C75653A2025640D0A0000004E6F20438C
:1024F000757272656E74204853452054756E65641C
:102500002056616C75650D0A0000000000F00DF8A2
:10251000002801D0FFF792FFAFF300800020AFF357
:102520000080FFF769FA00F002F80120704700F020
:1025300001B800000746384600F002F8FBE700004B
:1025400080B5AFF30080024A11001820ABBEFBE754
:10255000260002000548014603B4684680F3098856
:10256000AFF30080FFF77EFFFFF7D0FFA5EDF5FE8C
:1025700003480168034A127889180160704700BF58
:102580004005002054000020FEE7FEE7FEE7FEE7DE
:10259000FEE770477047704780B5FFF7E9FF01BD60
:1025A0000000000000005454522052454747455354
:1025B000000000003031323334353637383941428B
:1025C000434445461200000024000000360000008D
:1025D00040000000000000000100000002000000B8
:1025E00003000000014880470148004735220008E9
:1025F000552500085465726D696E616C000000001D
:1026000076312E302E300000FFF7FEBFFFF7FEBF01
:10261000FFF7FEBFFFF7FEBFFFF7FEBFFFF7FEBFEE
:10262000FFF7FEBFFFF7FEBFFFF7FEBFFFF7FEBFDE
:10263000FFF7FEBFFFF7FEBFFFF7FEBFFFF7FEBFCE
:10264000FFF7FEBFFFF7FEBFFFF7FEBFFFF7FEBFBE
:10265000FFF7FEBFFFF7FEBFFFF7FEBFFFF7FEBFAE
:10266000FFF7FEBFFFF7FEBFFFF7FEBFFFF7FEBF9E
:10267000FFF7FEBFFFF7FEBFFFF7FEBFFFF7FEBF8E
:10268000FFF7FEBFFFF7FEBFFFF7FEBFFFF7FEBF7E
:10269000FFF7FEBFFFF7FEBFFFF7FEBFFFF7FEBF6E
:1026A000FFF7FEBFFFF7FEBFFFF7FEBFFFF7FEBF5E
:1026B000FFF7FEBFFFF7FEBFFFF7FEBFFFF7FEBF4E
:040000050800255575
:00000001FF
